:020000040800F2
:10000000F00800200102000893340008A53200081F
:1000100091340008651B0008413B00080000000007
:1000200000000000000000000000000099350008FA
:10003000671B000800000000593500089B350008C8
:100040001B0200081B0200081B0200081B0200081C
:100050001B0200081B0200081B0200081B0200080C
:100060001B0200081B020008691B00081B02000895
:100070001B0200081B0200081B0200081B020008EC
:100080001B0200081B0200081B0200081B020008DC
:100090001B0200081B0200081B0200086F1B00085F
:1000A0001B0200081B0200081B0200081B020008BC
:1000B0001B0200081B020008FD3500081B02000897
:1000C0001B0200081B0200081B0200081B0200089C
:1000D0001B020008353B00081B0200081B02000839
:1000E0001B0200081B0200081B0200081B0200087C
:1000F0001B0200081B0200081B0200081B0200086C
:100100001B0200081B020008093600081B02000839
:100110001B0200081B0200081B0200081B0200084B
:100120001B0200081B0200081B0200081B0200083B
:1001300000F002F800F055F80AA090E8000C8244A4
:100140008344AAF10107DA4501D100F04AF8AFF281
:10015000090EBAE80F0013F0010F18BFFB1A43F0A5
:1001600001031847B44A0000D44A0000103A24BFE3
:1001700078C878C1FAD8520724BF30C830C144BF0C
:1001800004680C607047000000230024002500264E
:10019000103A28BF78C1FBD8520728BF30C148BFEA
:1001A0000B607047662904F06084002070471FB51B
:1001B0009DE8030000F0E4FE00F024FB04000020B2
:1001C000002103F03FFD401C60600020002103F08F
:1001D00023FDE06000F07EFC1FBD10B500F0E3FCE5
:1001E00010BD00F046FD1146FFF7E1FF03F0DCFC17
:1001F00000F058FE03B4FFF7F0FF03BC01F052F823
:100200000948804709480047FEE7FEE7FEE7FEE7AA
:10021000FEE7FEE7FEE7FEE7FEE7FEE704480549E6
:10022000054A064B70470000FB3500083101000805
:10023000F0020020F0080020F0040020F00400206C
:100240000FB4044910B503AA029800F085FA10BC57
:100250005DF814FBE80100202DE9F0410E4604464C
:10026000002020622046E168884730B3252805D069
:10027000D4E901219047206A401CF2E7E16820465A
:1002800000278847050018D0A5F14100192802D899
:1002900020354FF400673246294620462760FFF795
:1002A00081FF40B1012804D0F61D26F0070608366C
:1002B000D8E7361DD6E72846DAE7206ABDE8F081A0
:1002C00070B5064600F034F80468054630460A2248
:1002D000002100F053FA2C6070BD4FF0000200B511
:1002E000134694469646203922BFA0E80C50A0E859
:1002F0000C50B1F12001BFF4F7AF090728BFA0E807
:100300000C5048BF0CC05DF804EB890028BF40F8D2
:10031000042B08BF704748BF20F8022B11F0804F14
:1003200018BF00F8012B70477047704770470000F6
:10033000004870479002002070472DE9FF4F0C469F
:100340001E464FF0FF378BB0D2E90001DDF8608028
:100350000A908A46C1F30A5505B93D460021084670
:100360004FF00000BAF1000F00F4400005DA00EB96
:1003700080004FF4400101EA50004FEA9059B9F172
:10038000010F00DDB9460A9850EA4A000ED044F643
:100390001050A5F2FF3545432F14B8F1000F1ED0C1
:1003A0007542291E1EDDC9F100021CE0B8F1010FE3
:1003B0004FF0000001D0302103E0F24305E021546A
:1003C000401CB042FBDB30460022002121540B9937
:1003D000C1F80880C1E900200FB0BDE8F08FBD1B57
:1003E0006D1CDEE74A4600DA694206A800F0FCFA16
:1003F00006AB93E8070003AB83E8070050460A9971
:1004000000F0E8FF8DE80700A0F500501F380090CD
:100410000398002D0ADD42F21F014A4608440023DA
:1004200003A90390684601F051FA09E0A0F50050D5
:100430004A461F38002303A90390684601F05BFA7F
:100440008DE807000004000C03D04FF0FF30410896
:1004500000E01046B8F1000F03D0002200921546CC
:100460001EE0751E05D400F0D1F9303262556D1EC4
:10047000F9D5B3460122084302D000227F1C04E0D4
:100480002078302801D100227F1E002A099784D0CD
:100490001DE0112D07DA00F0B9F9303262556D1CFC
:1004A00050EA0102F5D1084302D00098C8B10EE02D
:1004B0000021681E05E0235C625C63542254401EE8
:1004C000491C8142F7DBAB46A81B401E0990002067
:1004D00004F80B000B98099AC0F80880C0E9002BBB
:1004E0007AE711264FF0000857E72DE9F04F8846CC
:1004F0000446D21D22F0070191B0D1E90001CDE9F7
:100500000A0103F01EFB02460B98C00F01D02D20FC
:1005100007E02068810701D52B2002E0202101EAB5
:10052000C000032A099001D0072A05DB0346414693
:10053000204600F0C9F90BE12078800601D5E0697A
:1005400000E00620B8F1650F814606D0B8F1660FCD
:1005500018D0B8F1670F70D131E00020B9F1110F58
:10056000009001DB112301E009F101030AAA01A9AE
:100570000CA8FFF7E2FEDDE90C70002609F1010589
:10058000834647E001204B4600904FF000470AAAFF
:1005900001A90CA8FFF7D1FEDDE90DB00C995D466D
:1005A000002610B909F101000D18B9EB050003D4BC
:1005B000C0F1FF3609F10105A5EB09002BE0B9F107
:1005C000010F01DA4FF001090020B9F1110F00907D
:1005D000484601DD112300E003460AAA01A90CA840
:1005E000FFF7ABFEDDE90C704D4600268346207810
:1005F00000070AD4AB4500DA5D4601A8012D04DDF1
:10060000411911F8011C302907D04F4502DA17F1C2
:10061000040F04DA012082460FE06D1EEEE7002F82
:1006200002DCED1B3E4403E0781CA84200DD7D1C8B
:10063000B81B00F1010A4FF000472078000703D4EF
:10064000AA4501DB4FF0FF3A0021B7F1004F0DF151
:1006500043088DF8431024D002202B23002F01DA09
:100660007F422D230A21021EA0F1010000DC5FB1B0
:1006700097FBF1FC97FBF1F201FB1C7C17460CF198
:10068000300C08F801CDEEE7A8F1010003702188D5
:10069000090501D5452100E06521A0F1010800F818
:1006A000011C09980FA9A1EB0807FF1D00B101204B
:1006B000411901EBEA70A1693844081A401EA06193
:1006C0002078C00602D42046AFF30080099828B1F4
:1006D000D4E901219047206A401C20622078C0069E
:1006E00022D52046AFF300801EE0002E04DBB34588
:1006F00002DD01A8805D00E03020D4E901219047AF
:10070000206A401C2062761CAAF101005FEA000A00
:100710000AD100F077F8C0680168405CD4E9012193
:100720009047206A401C2062281EA5F10105DCDCF0
:1007300007E0D4E9012118F8010B9047206A401C1A
:100740002062381EA7F10107F3DC2046AFF30080DA
:10075000032011B041E60000074B70B50D467B4405
:1007600000F09FF80446284600F0B0F910B14FF0B1
:10077000FF3070BD204670BD2B3400002DE9F047DE
:1007800091460F4680460446002614F8015B2DB1C1
:1007900000F030F80068405DC007F6D12B2D02D084
:1007A0002D2D18D0641E4A463946204600F0CCF85C
:1007B00027B13968A14201D1C7F800804FF0020487
:1007C00071050BD54042002803DDFFF7B1FD046041
:1007D000A007BDE8F08746F48066E4E70028F8DA71
:1007E000FFF7A6FD04606FF00040F2E70048704795
:1007F0009002002010B500F005F8001D10BD00BFEC
:100800004534000000487047B002002030B5B0F118
:100810000A024FEA900E71F100034EEA817EB0EBBE
:100820000E0061EB91014FEA101E4EEA017E10EBC3
:100830000E0041EB11114FEA102E4EEA016E10EB43
:100840000E0041EB11214FEA104E4EEA014E10EB23
:100850000E0041EB1141401841F100014FEAD00078
:1008600040EA41704FEAD10110EB80054FEA810464
:1008700044EA907444EB01046D1944EB0404521BE8
:10088000A3414FF0000348BF0A3200D530BD401CE1
:1008900041F1000130BD000001694A1C0261087885
:1008A000704700B58FB0CDE90131002105910549B0
:1008B0007944CDE9031011466846FFF7CDFC0FB02F
:1008C00000BD0000E5FFFFFF2DE9F0411F46044693
:1008D00003260168072A01F4006004DB08B116A5AD
:1008E00005E016A503E008B115A500E015A521F067
:1008F00010002060A069C01EA0610FB1401EA06161
:100900002046AFF300804FB1D4E90121384690472B
:10091000206A401C2062C01C206206E0206AFAE7C0
:10092000D4E9012115F8010B9047761EF8D2204634
:10093000AFF30080BDE8F0814E414E006E616E0065
:10094000494E4600696E66002DE9F05F8246154605
:100950008B4600270AF10104B9460078302801D0FF
:100960009DB113E014F8010B0127782803D0582813
:1009700001D045B10AE00DB1102D07D1002714F8C0
:10098000010B102502E0082500E00A250026B046EC
:100990000EE005FB080005FB06F101271FFA80F8B1
:1009A00001EB1046B6F5803F00D3B94614F8010BB1
:1009B000294600F0AAF90028EBDABBF1000F05D0B8
:1009C0000FB1641E00E05446CBF80040B9F1000FAF
:1009D00006D0FFF7ADFC02210160C81EBDE8F09F04
:1009E00048EA0640FAE700002DE9F047814616463E
:1009F0008AB0354878440DC88DE80D0032487844F7
:100A0000801C03AC0DC884E80D0041F69B300844FF
:100A1000372190FBF1F290FBF1F5A5F1800501FB88
:100A200012041B3C02D56442012000E00020DFF8E4
:100A300098A080460027FA44AAF1BE0A0EE0E0071B
:100A40000AD03246684607EB470101230AEB8101D1
:100A500000F051FF8DE8070064107F1C002CEED1E0
:100A6000194F7F44AE3F19E0E80715D007EB04109B
:100A70000DF1180A90E80E008AE80E00C068F042F6
:100A800001D1981908903246012306A903A800F065
:100A900032FF03AB83E807006D10641C002DE3D127
:100AA0004FF0010332466946B8F1000F03A802D0A7
:100AB00000F00CFF01E000F01EFFC9E90001C9F8D9
:100AC00008200AB0BDE8F087FC410000007B00F080
:100AD0008000704710B542485421FFF7FEFB4148A3
:100AE0005421FFF7FAFB40485421FFF7F6FB3F493A
:100AF0003B483C4A3F4B08603D490A603A4919600F
:100B0000531C0365481C1065012008653B48344AA6
:100B100039A1784400F02AF920B9384878440A38D5
:100B200000F0C9F937482F4A35A1784400F01EF982
:100B300020B9344878440A3800F0BDF932482A4ACE
:100B40002FA1784400F012F920B92F4878440A38D0
:100B500000F0B1F940232248DC000021224600F0D9
:100B6000E2F820B125487844543800F0A4F91D4833
:100B700022464023002100F0D6F820B121487844D5
:100B8000543800F098F9184822461023002100F04C
:100B9000CAF8002806D01C487844BDE810405638F2
:100BA00000F089B910BD104870B5006D20F0010447
:100BB0000B4800F051F90B4800F04EF90A4800F0DC
:100BC0004BF909E0206D20F00105204600F044F9C2
:100BD000204600F073F82C46002CF3D170BD0000C5
:100BE00094010020E80100203C0200205400002075
:100BF000580000205C00002072000000F640000059
:100C000077000000E2400000CE4000000EB5CDE9C4
:100C1000000100F027FB029069460120ABBE0EBD2B
:100C200008B5694600900220ABBE08BD1FB58DE82F
:100C3000070069460520ABBE04B010BD1FB58DE8A6
:100C40000F0069460620ABBEF6E708B5694600907E
:100C50000920ABBE08BD1CB5CDE9000169460A20DC
:100C6000ABBE1CBD704708B5694600900C20ABBEFA
:100C700008BD7546FFF7BAFDAE4605006946534606
:100C800020F00700854618B020B5FFF7C7FABDE889
:100C900020404FF000064FF000074FF000084FF0E3
:100CA000000B21F00701AC46ACE8C009ACE8C00974
:100CB000ACE8C009ACE8C0098D46704770B5044681
:100CC000051F00F041F90068002C14BF446870BD96
:100CD000002C18BFAC423CBF20466468F8D30168C2
:100CE0000A18AA4218BF456003D12A680546114474
:100CF000016028684119A1421CBF6C6070BD616829
:100D0000696021680844286070BD3A2800D23038F4
:100D100020F02002412A01D3A2F13700884201D3FA
:100D20004FF0FF30704770B5C468A50713D0650257
:100D300011D4B2F5807F09D0B2F5007F06D0B2F5AC
:100D4000806F08D1012300F1240106E05D1E6FF0E1
:100D50007F46B54201D3012070BD0161C36141608E
:100D600024F470611143C160002070BD2DE9F04191
:100D70000C4607461646104600F06EF82078611CB7
:100D800061280AD0722802D077283CD102E00125E0
:100D9000002405E00225042402E0082448F20205AC
:100DA00011F8010B2B2806D0622809D011F8010C8C
:100DB00074280AD00BE045F0030544F00204EFE785
:100DC00045F0040544F00104EAE744F01004384615
:100DD0002146FFF71BFF411C15D0002131617160D6
:100DE0004FF40071F560F1617061200704D5304661
:100DF0000222002100F022F9306D40F00100306540
:100E00003046BDE8F0810020FBE72DE9F0410D46BA
:100E10000646104C206DC10704D0410804D020F0D4
:100E20000104F7E722460EE0542000F0D8F807004E
:100E30000ED0206D47F0010108435421206538464B
:100E4000FFF74BFA3A4629463046BDE8F0418DE7B8
:100E50000020D6E7940100202DE9F04704464FF02A
:100E600000094FF0FF37C568D4E90486A80707D00A
:100E7000204600F093F93046FFF7D2FE002802DA50
:100E80003846BDE8F087280502D54046FFF716FF33
:100E90004C212046FFF721FA206D20F0010020654B
:100EA0004846EEE710B50446AFF300802046BDE8A3
:100EB0001040FFF79FB910B500F0BAF9BDE8104037
:100EC00000F0B0B94FF0013C50F8042B51F8043B4E
:100ED0009A4221D1A2EB0C03934313EACC1317D10E
:100EE00050F8042B51F8043B9A4215D1A2EB0C03A5
:100EF000934313EACC130BD150F8042B51F8043B65
:100F00009A4209D1A2EB0C03934313EACC13DBD032
:100F10004FF00000704700BFD01A01BAB1FA81F15A
:100F200001F0180122FA01F0CB40C1F12001DBB23F
:100F3000C0B2C01A2CFA01F3D11A914311EAC311BD
:100F4000E6D17047704700000048704798020020C3
:100F5000704770477047704738B504460A4600200E
:100F60006946AFF30080002808BF38BD02460099EB
:100F7000204600F0A4F9012038BD012000F0F3B9AB
:100F8000F8B5AFF30080054600200C46102000BFE6
:100F90000646A819A0420DD9324669460020AFF393
:100FA0000080070008BF00F0DEF90098A04218BFDB
:100FB0000546C419FFF7C8FF05600746F01D20F07D
:100FC00007004619284600F073F9B44208BFF8BD7F
:100FD000A21B31463868BDE8F84000F070B970B522
:100FE0000646FFF7B1FF056806F10B0020F0070485
:100FF000B4429CBF002070BD2B466A68BAB110682D
:10100000A04210D304F1080188423CBF50685860E8
:1010100007D35168101941601168091B01605860BD
:101020001460101D70BD13465268002AE7D1214696
:101030002846FFF791FF0028DED170BD2DE9F04171
:10104000044616460D464769007B80072ED0384679
:10105000FFF7FBFD50BB3EB3012E02D0022E25D17F
:1010600004E0204600F045F905441DE03846FFF74E
:10107000FAFDE168002841F01001E16005DA204640
:1010800000F058F80120BDE8F081C9030BD5626873
:10109000E16A914200D81146A26911442269891A75
:1010A000814200DD08460544002D01DA0220EAE70E
:1010B000E16A6068E268814206D29103E06203D58A
:1010C00022F4003141F01002A6690027AE4213DC81
:1010D000E16A814201D90B4600E0034603EB060CAE
:1010E0002369ACEB030CAC4506DD814201D98C468B
:1010F00000E084469C4505D1A760276042F02000AF
:10110000A5620DE0AD1BE669AE1B8142A66000D969
:101110000846C01A281A20605819606022F0200082
:1011200003490840E060002084F84870ABE7000005
:10113000BFCFD7FFC16821F4001141F08001C16029
:1011400000218160016070472DE9F0478146144617
:101150000E464FF0FF383248D5685769054209D02E
:101160003846A169FFF777FD002811DB2C48C04302
:101170000540E5602B46324649463846FFF756FDA6
:10118000A16920F00042B21A11440028A16103D0E5
:101190002046FFF7CFFF4046BDE8F08770B5044614
:1011A0000569C06A6168884200D80846E16821F490
:1011B0002011E160C90312D5A84208D02246411B84
:1011C0002846FFF7C1FF10B14FF0FF3070BD00207F
:1011D000E562C4E90150E06820F48030E06000205E
:1011E00070BD10B50446C06820F02000E060A16A20
:1011F000A06988420DD02046FFF7D0FFE06820F4B8
:10120000405040F01000E060A06AA0612069E062F8
:10121000606044F24001E0688843E06010BD000077
:1012200010000200002801D000F03CB87047000018
:1012300010B5014602A000F07DF8012010BD0000AD
:1012400053494752545245443A2052656469726585
:1012500063743A2063616E2774206F70656E3A2064
:101260000000000010B5431C02E010F8011B71B132
:101270008107FAD14FF0013202C88C1A8C4314EA6C
:10128000C211F9D0C01A0A0603D0C01E10BDC01A80
:1012900010BD0A0401D0801E10BD0902FCD0401E02
:1012A00010BD000001491820ABBEFEE72600020079
:1012B00000210160C0E9011070471020704703460B
:1012C00040688C46002818BF88423CBF03464068EF
:1012D000F8D318681844884207D00CF1030020F0B6
:1012E0000700001D411A521A0146081D0A60FFF747
:1012F000E5BC10B50146C268900703D0900607D53B
:10130000886A0AE0FFF714F801210160881E10BD09
:101310008B69486818440B69C01A91F848301BB1B2
:1013200091F84910401A10BD1103FCD50028FADDD0
:10133000401E10BD70B505460C460A2000E06D1C2D
:1013400000F018F835B128780028F8D102E0641CC4
:1013500000F010F814B120780028F8D1BDE87040F2
:101360000A2000F007B810B500F00CF8BDE81040F6
:10137000FFF758BF08B569468DF800000320ABBEE3
:1013800008BD000010B5012805D0002103A0FFF71B
:10139000D1FF012010BD09A1F8E7000053494752D1
:1013A000544D454D3A204F7574206F662068656135
:1013B00070206D656D6F7279000000003A204865FD
:1013C0006170206D656D6F727920636F72727570D8
:1013D000746564005FEA400C08BF91F0000F4FEAAB
:1013E0008C234FEAC12243EA51514FEA1C5018BFE7
:1013F00000F5F0404FEA300018BF41F000415FEACD
:101400006C5C00F02980BCF1FF3F08BF40F08040D9
:101410007047130C06BF12044FF0100C4FF0000C75
:10142000130E04BF12020CF1080C130F04BF1201BB
:101430000CF1040C930F04BF92000CF1020CD30FBB
:1014400004BF52000CF1010C11464FF00002A0F154
:101450001F00A0EB0C00704711F0004F08BF704751
:1014600031F000413FF4D5AF0B0C06BF09044FF03B
:10147000100C4FF0000C0B0E04BF09020CF1080C0D
:101480000B0F04BF09010CF1040C8B0F04BF890082
:101490000CF1020CCB0F04BF49000CF1010CCCF194
:1014A0002003A0EB0C0022FA03F302FA0CF241EA4B
:1014B000030100F10100704720F07F4C80EA030037
:1014C00023F07F47ACEB070303F57C5300F00040AB
:1014D00003F1FF032DE980494FEA154B09B44FEAA8
:1014E000144325EA0B4E24EA03480FF2042606EBC8
:1014F000132749083E785FEA320203FB0667C7F507
:10150000000707FB06F64FEA54374FEAD64606F1C6
:10151000020607FB066CCCF1005C4FEA1C472CEA84
:10152000074C07FB06F40CFB06F504EB15464FEAE7
:10153000961634BF00204FF000404FEAD13706FB2B
:1015400007FC4FEA1C4C0CFB0BF7D21B03FB0CF700
:1015500061EB07010CFB0EF7B0EB074072EB174293
:101560000CFB08F734BFA2EB0742B2EB074261EB7A
:1015700017414FEA0C444FEA910706FB07FC4FEA7C
:101580001C4C0CFB0BF7B0EBC74072EB573203FB64
:101590000CF734BFA2EBC742B2EBC74261EB573145
:1015A0000CFB0EF7B0EBC70072EB57720CFB08F7A1
:1015B00034BFA2EBC702B2EBC70261EB5771039FC6
:1015C0004FEA816141EA921104EBCC044FEAD13732
:1015D0004FEA826206FB07FC42EA90124FEA806003
:1015E0004FEA1C4C0CFB0BF7D21B03FB0CF761EB17
:1015F00007010CFB0EF7B0EB074072EB17420CFB38
:1016000008F734BFA2EB0742B2EB074261EB174188
:101610004FEA8C554FEA910704EB9C2406FB07FC2C
:101620004FEA1C4C0CFB0BF7B0EBC74072EB573288
:1016300003FB0CF734BFA2EBC742B2EBC74261EB2E
:1016400057310CFB0EF7B0EBC70072EB57720CFB77
:1016500008F734BFA2EBC702B2EBC70261EB5771C8
:1016600015EB4C254FEA816141EA92114FEA826203
:101670004FEAD13742EA901206FB07FC44F100041E
:101680004FEA80604FEA1C4C0CFB0BF7D21B03FBAC
:101690000CF761EB07010CFB0EF7B0EB074072EBA8
:1016A00017420CFB08F734BFA2EB0742B2EB07422C
:1016B00061EB174115EB1C154FEA813141EA92416C
:1016C0004FEA823242EA90424FEA80304FEA0C768B
:1016D00044F1000448EA03434EEA0B484FF0000E81
:1016E000B2EB080C71EB030724BF624639464EEBA0
:1016F0000E0E4FF0000B0018524149414BEB0B0B03
:10170000B2EB080C71EB03077BF1000B24BF6246C0
:1017100039464EEB0E0E4FF0000B00185241494176
:101720004BEB0B0BB2EB080C71EB03077BF1000BDF
:1017300024BF624639464EEB0E0E51EA020718BF2F
:1017400046F0010616EB0E7655F1000254F1000149
:1017500003D5BDE88901BDE80088BDE88901BDE881
:101760000048B619524141EB0101A3F10103704752
:1017700080807F7E7D7C7B7A7978777676757473CE
:10178000727171706F6E6E6D6C6C6B6A6A6968688D
:10179000676666656464636362616160605F5F5E23
:1017A0005E5D5D5C5C5B5B5A5A5959585857575699
:1017B00056555555545453535252525151505050FE
:1017C0004F4F4F4E4E4D4D4D4C4C4C4B4B4B4A4A50
:1017D0004A49494948484847474747464646454594
:1017E00045444444444343434342424242414141CD
:1017F000002B9C4630D477002BD01CB54FEA37071E
:1018000003B44FF010004FF01001BAF1000F06D0F2
:10181000BCF1000FDCBF40F0080040F008014FF0C1
:1018200000000FBCBDE810400BF1010BBBF1010F34
:1018300008BF5FEA170722BF12F1010211F101018F
:101840004FF0004143F1000300F0004043EA000084
:101850007047F9D35708D0E746EA064613F1400F20
:101860004FEA16461FDD13F1200FDFBF16430A466D
:10187000002120335B42BED0C3F1200746EA064672
:1018800002FA07F74FEA164646EA0706C3F12007B1
:1018900022FA03F201FA07F721FA03F14FF00003ED
:1018A00042EA0702A7E746EA020646EA06464FEA88
:1018B000164646EA0106BCBF46EA0646360C4FF01D
:1018C00000034FF000024FF0000194E72DE9804C37
:1018D0009A46934670B491E8380007C831EA400C44
:1018E00048BF34EA430C03D5FFF7E6FDFFF780FF5E
:1018F000F0BCBDE8008C2DE9804C9A46934670B44C
:1019000091E8380007C810F0804F08BF13F0804FEF
:1019100003D100F005F8FFF76BFFF0BCBDE8008CC9
:1019200020F07F4780EA030023F07F4C07EB0C0395
:10193000A3F57C5300F00040A3F1FE0392F0000FEA
:1019400000F0B38095F0000F00F077802DE9014999
:101950004FEA11404FEA144621EA004800FB06FC1A
:1019600024EA064708FB06F607FB08F800FB07F722
:1019700018EB06484CEB164C4FEA124B18EB074895
:101980004FEA15464CEB174022EA0B4E0BFB06FCC8
:1019900025EA06470EFB06F607FB0EFE0BFB07F7D4
:1019A0001EEB064E4CEB164C4FF000061EEB074E9E
:1019B0004CEB174B18EB0B0840F1000018EB0E0B2B
:1019C00058EB000840F100008F1A4FF000013CBFB7
:1019D000C943661B14BFB5EB040C00213CBFC943CF
:1019E000F61B4FEA17444EEA8E0E27EA04454FEAEB
:1019F0001C4704FB07622CEA074C05FB07F70CFBAE
:101A000005F604FB0CFC16EB074642EB174216EBFF
:101A10000C4642EB1C421BEB060658EB020241410E
:101A200046EA9E0601D5BDE80189B619524141EB4F
:101A30000101A3F10103BDE801894FEA14454FEA12
:101A4000114724EA054621EA074C05FB07F406FB8B
:101A500007F70CFB06F105FB0CFC11EB074144EB0F
:101A600017444FEA124711EB0C4144EB1C4422EAA5
:101A7000074C05FB07F206FB07F70CFB06F605FB18
:101A80000CFC16EB074642EB174216EB0C4642EBFA
:101A90001C456A1854F1000148BF7047B6195241FD
:101AA00041EB0101A3F10103704795F0000F37D01E
:101AB0004FEA11424FEA144721EA024624EA074C52
:101AC00002FB07F106FB07F70CFB06F402FB0CFC1C
:101AD00014EB074441EB17414FEA154714EB0C4454
:101AE00041EB1C4125EA074C02FB07F506FB07F713
:101AF0000CFB06F602FB0CFC16EB074645EB174504
:101B000016EB0C4645EB1C42121951F1000148BF7F
:101B10007047B619524141EB0101A3F1010370472F
:101B20004FEA14454FEA114724EA054621EA074CDB
:101B300005FB07F106FB07F70CFB06F24FF000066A
:101B400005FB0CFC12EB074241EB174112EB0C4278
:101B500051EB1C4148BF7047921841EB0101A3F1C2
:101B600001037047FEE77047102000F011B94020D4
:101B700000F00EB910B590F821100022022905D00E
:101B80000421816380F82020012010BD01680B68CA
:101B900023F00E030B6001680B6823F001030B6058
:101BA00090F84030C46B012101FA03F3636080F8C0
:101BB000211080F82020104610BD00002DE9F05FB4
:101BC00090F821100024022903D00421816301240C
:101BD00085E001680A6822F00E020A6001680A685E
:101BE00022F001020A603F4E3E4FB215DFF8F4C00A
:101BF000DFF8F090DFF8ECA0DFF8E8B0DFF8E4E021
:101C00000168783F13011502ACF1640CA9F1500989
:101C1000AAF13C0AABF1280BAEF1140E4FF4801878
:101C2000B14227D9B9420ED0614512D049451DD0E5
:101C3000514518D0594518D0714501D1424615E09B
:101C4000294EB14201D1012210E0274E1436B14293
:101C500001D110220AE0244E2836B14206D0224A91
:101C60003C32914201D11A4600E02A461E49091F22
:101C70000A602BE0B94213D0614517D0494522D004
:101C800051451DD059451DD0714501D142461AE03C
:101C9000B14202D14FF0807215E0134EB14201D132
:101CA000012210E0104E1436B14201D110220AE098
:101CB0000D4E2836B14206D00B4A3C32914201D13A
:101CC0001A4600E02A46074980394A60012180F817
:101CD0002110002180F82010416B01B18847204677
:101CE000BDE8F09F80000240080402402DE9F04763
:101CF0000025254A4FF4FA66244CC6F10008402816
:101D000001D0102837D110219146104600F048F933
:101D100040EA47074021484600F042F940EA4700C0
:101D200010F0030006D0012808D002280AD00328AA
:101D300011D10AE0A17801291FD009E0A178032977
:101D40001BD005E0A178C1B102E0A178022914D02E
:101D5000E188491EE180A070E089401CE081B4F96F
:101D60000600B0420CDBE580A06A401C02E0E58082
:101D7000A06A401EA062BDE8F087E188491CE9E73F
:101D80004045F4DDF7E70000000C014000000020B2
:101D9000044910B50A68024202D00860FFF7A6FFA6
:101DA00010BD0000140401402DE9F84FDFF8C89180
:101DB0000024A9F1040B23460F2709F1040AABF113
:101DC000040ED1E00125A54006EA0502AA4276D11B
:101DD000DFF8A8C14E68A6EB0C0866452BD00DDCD9
:101DE000032E34D005DC36B3012E19D0022E2FD1AC
:101DF0001BE0112E16D0122E2AD119E0B8F5881F3B
:101E000019D006DCB8F5803F15D0B8F5801F1FD17A
:101E100011E0B8F5001F0ED0B8F5041F18D10AE084
:101E2000CB6815E0CB681B1D12E0CB6808330FE0D0
:101E3000CB680C330CE08B682BB1012B4FF00803FF
:101E400003D0456104E0042302E0056100E00023C3
:101E5000FF2A01D8064601E000F104064FEA840596
:101E600001D9A5F12005D6F8008007FA05FC28EA7B
:101E70000C0803FA05F548EA0508C6F800804D6825
:101E8000ED0070D53E4DAE6946F00106AE61AD691C
:101E900024F0030605F0010500953A4D06EB050C0C
:101EA000DCF80850A607360F07FA06F825EA0805F9
:101EB000DFF8D480404503D14FF0000825E052E020
:101EC000DFF8C880404502D14FF001081DE0DFF87F
:101ED000C080404502D14FF0020816E0DFF8B48020
:101EE000404502D14FF003080FE0DFF8AC804045D9
:101EF00002D14FF0040808E0DFF8A080404502D18D
:101F00004FF0050801E04FF0060808FA06F848EA25
:101F10000508CCF808804D68D9F80060ED024D4600
:101F200001D5164300E096432E604D68DAF8006054
:101F3000AD02554601D5164300E096432E604D682C
:101F4000DBF80060AD035D4601D5164300E0964323
:101F50002E604D68DEF80060ED03754601D516432E
:101F600000E096432E60641C0A681646E2407FF447
:101F700029AFBDE8F88F00000804014000001110EF
:101F8000001002400000014000080140000C014028
:101F9000001001400014014000180140001C0140E5
:101FA0008068084000D0012070470AB10161704785
:101FB0000904FBE7014880687047000044000020E6
:101FC0000248816802781144816070474400002013
:101FD000074810B5016841F010010160032000F0CE
:101FE00075F80F2000F006F800F024F8002010BD6E
:101FF0000020024070B50D4D04464FF47A712878E8
:10200000B1FBF0F00A490968B1FBF0F000F0DCFA2E
:1020100048B9102C07D200222146501E00F036F895
:1020200000206C6070BD012070BD000044000020E5
:10203000500000200C4808B5816941F00101816120
:10204000816901F001010091C16941F08051C161D4
:10205000C06900F0805000900448416821F0E061C0
:1020600041F00071416008BD0010024000000140D5
:10207000002809DB00F01F02012191404009800087
:1020800000F1E020C0F8001170470000F0B40E4BE2
:102090001B680C46C3F30223C3F10705042D00D9C6
:1020A0000425191D072901D2002300E0DB1E0126AB
:1020B00006FA05F1491E214099409E40761E1640C1
:1020C0003143F0BC01F051BD0CED00E0064900F0D9
:1020D000070208684FF6FF03184040EA0220034A4F
:1020E00010430860704700000CED00E00000FA05A6
:1020F0002DE9F0470F46050061D0434E306800F0EF
:102100000700B84209D2306820F007003843306039
:10211000306800F00700B84251D128683B4C810775
:1021200012D5400703D5606840F4E060606028780D
:10213000000703D5606840F4605060606068A9687B
:1021400020F0F000084360602878C00728D0686855
:10215000012810D02168022810D0890700292EDA22
:10216000616821F0030101436160FFF723FF8046AE
:1021700041F288390DE021688903EFE78901EDE735
:10218000FFF718FFA0EB0801494502D90320BDE87D
:10219000F0876068696800F00C00B0EB810FEFD148
:1021A000306800F00700B8420BD9306820F0070013
:1021B00038433060306800F00700B84201D0012099
:1021C000E5E72878400705D56068E96820F4E06015
:1021D000084360602878000706D56068296920F404
:1021E000605040EAC100606000F038F86168084A59
:1021F000C1F30311515CC8400649086006480068F5
:10220000FFF7F8FE0020C2E7002002400010024065
:10221000604B000850000020480000200448054999
:1022200000684968044AC1F30221515CC840704704
:102230005000002000100240704B0008044805497F
:1022400000684968044AC1F3C221515CC840704724
:102250005000002000100240704B00080E4A5168E8
:102260000E4801F00C03042B11D0082B0FD10C48A1
:10227000C1F38343C903C05C0AD55168084AC1F35E
:102280004041921E515C054A5043B0FBF1F070474B
:1022900004494843704700000010024000127A00D1
:1022A000504B000800093D002DE9F84F040070D0A4
:1022B0002078C04DC00749D06868C0F3810001286C
:1022C00007D06868C0F38100022809D16868C0039C
:1022D00006D52868800339D560680028E7D035E046
:1022E0006068B0F5803F0BD010B1B0F5A02F11D0D1
:1022F000286820F480302860286820F4802002E0DC
:10230000286840F480302860606890B1FFF752FE82
:1023100006460AE0286840F480202860F0E700BF05
:10232000FFF748FE801B642873D828688003F7D520
:102330000CE0FFF73FFE064605E000BFFFF73AFE60
:10234000801B6428F0D828688003F7D420789A4E40
:1023500080074FF001094FF0000839D5686810F088
:102360000C0F07D06868C0F38100022809D16868A3
:10237000C00306D42868800714D52069012808D135
:1023800010E02069B0B1C6F80090FFF713FE0746D1
:1023900005E00AE1FFF70EFEC01B0228C4D828683A
:1023A0008007F7D52868616920F0F80040EAC1008D
:1023B00028600DE0C6F80080FFF7FCFD074604E04A
:1023C000FFF7F8FDC01B022823D828688007F7D440
:1023D000207800072CD57948A169D9B1C0F80090C0
:1023E000FFF7E8FD074604E0FFF7E4FDC01B022805
:1023F0000FD8686A8007F7D571484FF4FA51006822
:10240000B0FBF1F0009000BF0098411E0091FAD29D
:102410000EE080E0C0F80080FFF7CCFD074604E046
:10242000FFF7C8FDC01B022875D8686A8007F7D47B
:102430002078400760D5E8690027C00008D4E86923
:1024400040F08050E861E869012700F0805000907A
:102450005C480168C90513D40168834641F4807162
:102460000160FFF7A7FD824606E000BFFFF7A2FD6F
:10247000A0EB0A0064284ED8DBF80000C005F5D5B3
:10248000E06801280AD008B1052813D0286A20F096
:1024900001002862286A20F0040002E0286A40F067
:1024A00001002862E06841F2883B98B1FFF782FDA5
:1024B00082460BE0286A40F004002862EEE700BF85
:1024C000FFF778FDA0EB0A0159455AD8286A800722
:1024D000F6D50CE0FFF76EFD824605E0FFF76AFDDA
:1024E000A0EB0A0159454CD8286A8007F6D41FB1E1
:1024F000E86920F08050E861E06988B36968C1F359
:102500008101022944D00228C6F8608004D0FFF778
:1025100051FD044638E034E0FFF74CFD074604E087
:10252000FFF748FDC01B02282BD828688001F7D48C
:10253000206AB0F5803F05D16868A16820F40030BA
:1025400008436860D4E908010843696821F47411FC
:1025500008436860C6F86090FFF72CFD044606E06B
:1025600025E000BFFFF726FD001B022809D82868D8
:102570008001F7D51BE000BFFFF71CFD001B022800
:1025800002D90320BDE8F88F28688001F4D40EE05A
:102590000128F7D06868226A00F48031914204D1A2
:1025A000616A00F47010884201D00120EAE700203F
:1025B000E8E700000010024000004242800442426E
:1025C000500000200070004010B5401EB0F1807F28
:1025D00001D3012010BD4FF0E02460610F2160178E
:1025E00001F0C3FA0020A06107202061002010BD87
:1025F0007047704770B590F83C20012A2CD0012418
:1026000080F83C40022280F83D2003685A689D68AB
:1026100022F070060A6832435A60104B02689A42F0
:102620000ED00F4B9A420BD0B2F1804F08D00D4B19
:102630009A4205D00C4B9A4202D00C4B9A4204D1DC
:10264000496825F080031943916080F83D400021DE
:1026500080F83C10084670BD022070BD002C01407F
:10266000003401400004004000080040000C00401D
:1026700010B5040003D094F83D0010B107E001202C
:1026800010BD002084F83C00204600F01FF8022016
:1026900084F83D00211D206800F0BCFF012084F873
:1026A000460084F83E0084F83F0084F8400084F837
:1026B000410084F8420084F8430084F8440084F820
:1026C000450084F83D00002010BD000008B5154A03
:1026D0000168154891420ED1C16941F00401C16100
:1026E000C069002200F00400009011461E20FFF790
:1026F000CDFC1E2010E00D4A914211D1C16941F07C
:102700000801C161C069002200F008000090114674
:102710003220FFF7BBFC3220BDE80840FFF7A8BC21
:1027200008BD00000008004000100240000C0040FE
:1027300090F83D10012901D001207047022180F856
:102740003D100168CA6842F00102CA6000680E4983
:1027500088420ED00D4988420BD0B0F1804F08D08E
:102760000B49884205D00B49884202D00A49884269
:1027700004D1816801F00701062903D0016841F006
:102780000101016000207047002C0140003401402D
:102790000004004000080040000C004070B50446F2
:1027A00090F83C000025012817D0012684F83C60F1
:1027B000022084F83D002068826822F0770222F42B
:1027C0007F4282600868502838D00DDC20284FD026
:1027D00005DC90B3102811D14AE0022070BD3028EA
:1027E00046D040280AD13BE060282FD070280DD079
:1027F000B0F5805F03D0B0F5005F12D0012584F8FA
:102800003D60002084F83C00284670BDCB68D1E9CB
:102810000121206800F051FF2068816841F07701B4
:1028200009E0CB68D1E90121206800F046FF20686B
:10283000816841F480418160E1E719E0CA68496834
:10284000206801F00FF85021206806E0CA68496846
:10285000206801F018F86021206800F038FFCEE70A
:10286000CA684968206800F0FDFF40212068F4E74D
:10287000226801461046F0E7704770B504460068CC
:1028800001694FF00005C943890715D4C168C943E0
:10289000890711D4E91E0161012020772068806931
:1028A0008007204602D0FFF7E7FF04E000F0C8F8F9
:1028B000204600F06DF9257720680169C943490772
:1028C00017D4C168C943490713D46FF004010161EB
:1028D000022020772068806910F4407F204602D0D3
:1028E000FFF7CAFF04E000F0ABF8204600F050F913
:1028F000257720680169C943090716D4C168C9430F
:10290000090712D46FF008010161042020772068C4
:10291000C0698007204602D0FFF7AEFF04E000F058
:102920008FF8204600F034F9257720680169C94303
:10293000C90617D4C168C943C90613D46FF0100182
:102940000161082020772068C06910F4407F20468C
:1029500002D0FFF791FF04E000F072F8204600F08B
:1029600017F9257720680169C943C90708D1C168EB
:10297000C943C90704D1891E0161204600F064F9EA
:1029800020680169C943090609D4C168C943090619
:1029900005D46FF0800101612046FFF729FE206811
:1029A0000169C943490609D4C168C943490605D428
:1029B0006FF040010161204600F0E2F920680169F2
:1029C000C94389060BD4C168C943890607D46FF08F
:1029D000200101612046BDE87040FFF70ABE70BDCE
:1029E00000B585B00021009101910291039100682A
:1029F0000F4988421AD10F48816941F01001816165
:102A00008069694600F01000049080200090022048
:102A1000019003900848FFF7C7F90848416821F47E
:102A2000406141F0E06141F44061416005B000BDAA
:102A3000000400400010024000100140000001406E
:102A4000704770B5044690F83C0000260D460128FA
:102A50000FD0012084F83C006AB1042A1DD0082A56
:102A60002FD00C2A3FD00126002084F83C003046AD
:102A700070BD022070BD206800F032FE20688169C0
:102A800041F0080181612068816921F004018161C0
:102A9000206881692A69114311E0206800F050FE26
:102AA0002068816941F4006181612068816921F4B5
:102AB00080618161206881692A6941EA022181611E
:102AC000D2E7206800F072FE2068C16941F0080179
:102AD000C1612068C16921F00401C1612068C16938
:102AE0002A69114311E0206800F094FE2068C16952
:102AF00041F40061C1612068C16921F48061C16154
:102B00002068C1692A6941EA0221C161ACE710B5B8
:102B1000040003D094F83D0010B107E0012010BD7F
:102B2000002084F83C00204600F01EF8022084F8C3
:102B30003D00211D206800F06DFD012084F8460055
:102B400084F83E0084F83F0084F8400084F8410097
:102B500084F8420084F8430084F8440084F8450077
:102B600084F83D00002010BD08B500680649884281
:102B700008D10648C16941F00201C161C06900F095
:102B80000200009008BD0000000400400010024058
:102B90007047000010B50446022249B104290ED046
:102BA000082913D094F84100012816D0012010BD47
:102BB00094F83E000128F9D184F83E200FE094F803
:102BC0003F000128F2D184F83F2008E094F840004B
:102BD0000128EBD184F8402001E084F84120012253
:102BE000206800F05DFD13492068134A884201D037
:102BF000904203D1436C43F400434364206888420D
:102C00000DD090420BD0B0F1804F08D00B498842D4
:102C100005D00B49884202D00A49884204D1816814
:102C200001F00701062903D0016841F001010160AC
:102C3000002010BD002C0140003401400004004081
:102C400000080040000C00402DE9F84F07460068DE
:102C50003F49404C4FF0000888425AD1B4F9060071
:102C600001F038FADFF8F0A0DFF8F0B052465B462A
:102C700001F048FA00223A4B01F0D4F80546A06A68
:102C80000E46400001F026FA52465B4601F03AFA41
:102C90002A46334601F01EF800F0EAFFDFF8C49040
:102CA00060614946009001F09FFD01F013FC52461F
:102CB0002D4B01F0B7F800F0DBFF2064E589E562F9
:102CC000C5EB05104646A4F80E80800001F074FDA7
:102CD000494601F093FC01F053FD2081680001F0AA
:102CE000F9F952465B4601F00DFA00221F4B01F044
:102CF00099F800F0BDFF6063607838B10099206BEF
:102D000000F0C8FBA08100F029FC02E01848006830
:102D1000866318493868884217D12078401CC0B2B1
:102D200020706178002910D005280ED184F8008029
:102D3000206C80F0004001F0CDFB01B00246BDE800
:102D4000F04F0B460CA0FDF77BBABDE8F88F0000F2
:102D500000080040000000206F1283C0CA21094013
:102D600000408F4000002041CA211940000024404B
:102D700060000020000C00405025660D200A000075
:102D80007047704770470000F8B50168044608684E
:102D9000CA684B6910F00F0F4FF0000559D003F0CF
:102DA000010602F49077374365D0C10705D0D105FD
:102DB00003D5616C41F001016164410705D5D90774
:102DC00003D0616C41F002016164810705D5D90728
:102DD00003D0616C41F004016164010707D502F082
:102DE0002001314303D0616C41F008016164616CE2
:102DF00000293AD0800604D5900602D5204600F07E
:102E000083FD20684069616CC0F38010090700D41D
:102E100060B3204600F051FD20684069400621D58E
:102E20002068143050E8001F21F0400140E80012F3
:102E3000002AF5D1E06BA8B16D494163E06BFEF764
:102E4000BDFE002811D0E06B416B01B0BDE8F04041
:102E5000084783060FD593060DD52046BDE8F840F8
:102E600000F052BD2046FFF78DFFF8BD2046FFF76A
:102E700089FF6564F8BD266B2023012E7CD1C60630
:102E80007AD5D60678D508684868009048694FF02A
:102E90000206400640D5E16B086840680004000C5B
:102EA000E8D0A28D8242E5D9E085886920282DD01E
:102EB00020680C3050E8001F21F4807140E80012B7
:102EC000002AF5D12068143050E8001F21F00101DC
:102ED00040E80012002AF5D12068143050E8001FA5
:102EE00021F0400140E80012002AF5D184F8423078
:102EF000256320680C3050E8001F21F0100140E8E5
:102F00000012002AF5D1E06BFEF734FE6663A08D57
:102F1000E18D401A81B22AE0A08DE18D401A81B284
:102F2000E08D0028A6D00029A4D022680C3252E8F7
:102F3000000F20F4907042E80007002FF5D12068C0
:102F4000143050E8002F22F0010240E80027002F43
:102F5000F5D184F84230256320680C3050E8002F0A
:102F600022F0100240E80023002BF5D166632046D2
:102F7000FFF707FFF8BDFFE705062BD5150629D596
:102F800094F841002128F5D1A068B0F5805F01D107
:102F90002069B0B1206A411C216221680078486034
:102FA000E08C401E0004000CE084E3D12068C1687E
:102FB00021F08001C1602068C16841F04001C1601A
:102FC000D8E7206A0088C0F308004860206A801CA7
:102FD0002062E5E74006CDD55006CBD5CA6820462D
:102FE00022F04002CA6084F8413000F05AF9C1E78B
:102FF000AB38000870B5040004D094F841000025F7
:1030000010B106E0012070BD84F84050204600F069
:1030100023F8242084F841002068C16821F400517D
:10302000C160204600F0D2FC2068016921F4904183
:1030300001612068416921F02A0141612068C1686D
:1030400041F40051C1606564202084F8410084F897
:1030500042006563002070BD30B585B00024009447
:103060000194029403940068184988422CD11848AE
:10307000816941F480418161816901F48041049159
:10308000816941F0040181618069124D00F0040002
:1030900004904FF4007000900220019003200390F0
:1030A00069462846FEF780FE2815CDE900046946EA
:1030B00028460294FEF778FE002211462520FEF7EE
:1030C000E5FF2520FEF7D4FF05B030BD00380140F4
:1030D000001002400008014090F84230202B01D03F
:1030E0000220704721B11AB10023036300F0CABC6B
:1030F000012070472DE9F04100683C49884273D1B6
:103100003B4C3C4A0025217929B900201554401C2C
:10311000C0B21428FAD3364810300078362854D07C
:103120000ADCA0F12D03092B55D2DFE803F04E4E47
:10313000544E4E4E4E4E4E00652810D006DC3728B9
:1031400043D0382841D0392845D13EE0722808D0F4
:10315000294E2A4F732807D076283CD11DE0657090
:1031600039E00120607036E02248FDF7A9F801F04F
:1031700023FB80F000400121E06301F0AAFC01F094
:10318000A9F932463B4600F0BDFF00221C4B00F07F
:1031900049FE00F06DFD206311E01648FDF790F840
:1031A00000B2608100F096FF32463B4600F0AAFF75
:1031B0000022144B00F036FE00F05AFDA0631421EB
:1031C0000C48FDF78AF8257105E00A44491C217175
:1031D000117801431170BDE8F0410549054801220D
:1031E00010314838FFF778BFBDE8F0810038014062
:1031F00000000020800100206F1283C0CA21094016
:103200000000244000003E402DE9F843044690F8B9
:1032100041001F4616460D46202802D00220BDE878
:10322000F8837DB176B100206064212084F84100EC
:10323000FEF7C0FEA6848046E684A068B0F5805FF5
:1032400002D003E00120EAE7206910B12E460025F4
:103250000EE000260CE08021204600F02EFCA0B9F4
:10326000AEB116F8010B21684860E08C401EE08486
:10327000E08C43464FF0000200970028EBD14FF05E
:103280004001204600F019FC30B10320C7E735F8B3
:10329000020BC0F30800E6E7202084F8410000207C
:1032A000BDE77047FEE7000070B586B000242448F3
:1032B0000094019402940394816941F010018161AA
:1032C000816901F010010491816941F0040181617B
:1032D000816901F004010491816941F00801816173
:1032E0008069184E00F00800049000220821304642
:1032F000FEF75BFE08200125CDE900050220CDE99F
:10330000024069463046FEF74FFD502000900E48BF
:10331000CDE9010569460D48FEF746FD002211463C
:103320000A20FEF7B3FE0A20FEF7A2FE0022114695
:103330001720FEF7ABFE1720FEF79AFE06B070BD11
:10334000001002400010014000003110000C01404C
:1033500010B58AB0002407941C2168460894FCF735
:10336000BCFF1648144901600B21C0E90114642117
:10337000C0E903148461FFF7CAFB08B172B6FEE727
:10338000079407A90D480894FFF734F908B172B6FD
:10339000FEE76020CDE90004029404226946074854
:1033A0000494FFF74EFB08B172B6FEE70348FFF73F
:1033B00017FB0AB010BD00000004004060000020B0
:1033C00010B586B000241748009401940294039429
:1033D000049413490594016045F6BF51C0E90114F6
:1033E0000421C0E903148461FFF742F908B172B601
:1033F000FEE74FF48050009069460A48FFF7CEF987
:1034000008B172B6FEE7049404A906480594FFF7D4
:10341000F1F8002801D072B6FEE706B010BD00003A
:1034200000080040A800002010B586B0002417480E
:103430000094019402940394049413490594016048
:1034400045F6BF51C0E901140921C0E903148461A4
:10345000FFF70EF908B172B6FEE74FF48050009006
:1034600069460A48FFF79AF908B172B6FEE7049474
:1034700004A906480594FFF7BDF8002801D072B6EC
:10348000FEE706B010BD0000000C0040F000002078
:10349000FEE7FEE72DE9F04701F072FADFF89880C9
:1034A0000027264C0546B0F5000F02DB0120E07036
:1034B00007E0454504D30220E07085F0004500E0B8
:1034C000E7701F49284601F08FF981462846E669D2
:1034D000616A01F055FA1B4901F086F91A4901F0B9
:1034E0008DF81A49656201F07FF905461849206A8E
:1034F00001F07AF9294601F019F8054620623146B3
:10350000484601F013F8294601F010F80146114829
:10351000814201DD142503E0414505D300252846FD
:1035200001F02EFAA06104E0084601F029F905B285
:10353000A7612846BDE8F0870000808000000020D9
:10354000EE7C9E41F371253F0AD7A33BCDCCCC3D09
:103550006666663F0000A0417047000070B50B4CE6
:103560000B480C4DE178012905D0022905D000292E
:103570000BD1002007E0012200E000220821FEF725
:1035800014FDB4F90C002968886370BD00000020A8
:1035900000100140600000207047FEF711BD30B5FB
:1035A0008FB028216846FCF798FE14210AA8FCF782
:1035B00094FE022401200490009410200590002520
:1035C0004FF42010CDE9085007946846FEF76CFED2
:1035D00008B172B6FEE70AA90F2081E831004FF466
:1035E000A0600D900E9001210AA8FEF781FD002831
:1035F00001D072B6FEE70FB030BD70470148FFF74B
:103600003CB90000A80000200148FFF736B90000CF
:10361000F0000020F0B502681C4B1D4D1D4E1E4FE2
:103620001E4C4FF0804C984209D0A04207D0604514
:1036300005D0A84203D0B04201D0B84204D122F054
:10364000700E4A6842EA0E02984209D0A04207D0A2
:10365000604505D0A84203D0B04201D0B84203D1A2
:1036600022F44075CA682A434D6922F080022A4339
:1036700002608A68C2620A688262984201D0A042EF
:1036800001D10969016301214161F0BD002C0140B4
:103690000004004000080040000C004000340140DD
:1036A00010B501F01F030121046A99408C430462A4
:1036B000016A9A401143016210BD10B5846842EA64
:1036C000032224F47F440A432243826010BD8268AF
:1036D00022F070020A4342F0070181607047000047
:1036E000F0B5036A026A22F001020262426884694C
:1036F000124E24F073050C682C4323F002058B68EE
:103700002B430D4DA84201D0B04205D123F008074C
:10371000CB683B4323F00403A84201D0B04205D15B
:103720004D6922F4407215438A692A4342608461DC
:10373000496841630362F0BD002C01400034014040
:10374000F0B5026A036A23F01003036243688469D8
:103750000D6824F4E64444EA05248D6822F0200232
:1037600042EA05120F4D104EA84201D0B04206D1D8
:10377000CF6822F0800242EA071222F04002A842FB
:1037800001D0B04207D14D6923F4406343EA850379
:103790008D6943EA850343608461496881630262FD
:1037A000F0BD0000002C014000340140F0B5026A79
:1037B000036A23F4807303624368C46922F40072CD
:1037C00024F073050C68124E2C438D6842EA0522E2
:1037D0000E4DA84201D0B04206D1CF6822F400625B
:1037E00042EA072222F48062A84201D0B04207D107
:1037F0004D6923F4405343EA05138D6943EA0513E9
:103800004360C4614968C1630262F0BD002C01409D
:103810000034014030B5046A026A22F48052026228
:103820004268C3690D6823F4E64343EA05238D68C3
:1038300024F4005444EA0534084DA84202D0084D4F
:10384000A84204D14D6922F4804242EA85124260C6
:10385000C36149680164046230BD0000002C01406E
:103860000034014010B5036A046A24F001040462C4
:10387000846924F0F00444EA021423F00A020A43A3
:103880008461026210BD10B5036A046A24F010045A
:103890000462846923F0A00324F4704444EA0232F1
:1038A00043EA01118261016210BD10B5406A002136
:1038B000C185C184FFF766FA10BD01680C3151E87B
:1038C000002F22F4907241E80023002BF5D101680B
:1038D000143151E8002F22F0010241E80023002BAF
:1038E000F5D1016B012909D101680C3151E8002F94
:1038F00022F0100241E80023002BF5D1202180F8AE
:10390000421000210163704708B590F84210222947
:1039100001D0022008BD82684FF480539A4201D141
:10392000016921B1816A9A421BD04AB10AE002685A
:10393000816A5268C2F308020A80816A891C08E021
:10394000026972B10268526802F07F020A70816AED
:10395000491C8162C18D491E0904090CC18503D02F
:103960001BE002685268F1E70168CA6822F0200291
:10397000CA600168CA6822F48072CA6001684A6934
:1039800022F001024A61202180F8421000214163A7
:10399000026B012A03D0FFF7ADFB002008BD0163D5
:1039A00001680C3151E8002F22F0100241E8002399
:1039B000002BF5D101680A68D20602D50A68496869
:1039C0000091818DFFF7DDF9E7E7000070B504464F
:1039D00000680169E26821F44051114301612169E5
:1039E000A0680843616908432168CA6841F20C6312
:1039F0009A430243CA6020684169A26921F4407178
:103A0000114341611E492068884202D1FEF716FC2D
:103A100001E0FEF703FC00EBC00101EB001260685F
:103A200064218000B2FBF0F3B3FBF1F36FF01806F2
:103A30007343B2FBF0F5B2FBF0F605EB83053223DE
:103A400003EB0515B5FBF1F5B6FBF1F605F0F00556
:103A500005EB0615B2FBF0F6B2FBF0F0B0FBF1F0AF
:103A60006FF01802504306EB800003EB0010B0FB30
:103A7000F1F0216800F00F002844886070BD00005C
:103A80000038014081628285C28500214164222183
:103A900080F84210016921B10168CA6842F480725D
:103AA000CA6001684A6942F001024A610068C1685F
:103AB00041F02001C160002070472DE9F041984697
:103AC00017460E460446069D27E0681C25D02DB1FA
:103AD000FEF770FAA0EB0800A8421ED920680C304F
:103AE00050E8001F21F4D07140E80012002AF5D1FF
:103AF0002068143050E8001F21F0010140E8001256
:103B0000002AF5D1202084F8410084F842000020EA
:103B100084F840000320BDE8F0812068006836EAA0
:103B2000000004D00020B842CFD00020F3E70120ED
:103B3000F9E700000148FFF727B90000380100202D
:103B4000FEE7490050EAC12018BF04204A0D18BF03
:103B500040F0010040F2FF72B2EB515F08BF40F04D
:103B60000200012808BF052070470907090E002838
:103B700004DB00F1E02080F80014704700F00F0033
:103B800000F1E02080F8141D7047000038B50446AD
:103B90008DF800006423012269460248FFF734FBD8
:103BA000204638BD38010020FEF712FAFFF7F7FC77
:103BB000FFF77AFBFFF7CCFBFFF702FCFFF734FCC3
:103BC000134812490C2201604FF4E1314160002199
:103BD0008160C160C0E904128161C161FFF70AFA26
:103BE00008B172B6FEE70A489038FEF7A1FD084812
:103BF0004838FEF79DFD06480421D838FEF7CAFF75
:103C0000012204490248FFF767FAFEE70038014045
:103C1000380100201000002010B500290AD00878D3
:103C2000002807D005487844FDF74CF9002801D05A
:103C3000002010BD0248784410BD000012100000A2
:103C40000A10000010B500290AD00878002807D013
:103C500005487844FDF736F9002801D0002010BD52
:103C60000248784410BD000002100000FA0F000066
:103C700021F00042A2F16052B2F5801F01F0004332
:103C800028BFD2F17F6C0BD95FEA001C43EAC20265
:103C900042EB507018BF704728BF20F001007047FA
:103CA000B2F5801FBCBF184670474FEA410C1CF5A7
:103CB000001F02D2084600F05EBE70B500F0CCFADC
:103CC00000000089FFF7F6BF4FF00040A0F580002C
:103CD0007047000010B591EA030F48BF83F000431E
:103CE00000F11683841A71EB030C05D2121943EB11
:103CF0000C03001B61EB0C01DFF824E14FEA1154C7
:103D0000A4EB135C1EEA430F18BF9EEA445F73D016
:103D100023EA0E03DCF1200E21EA045143F4801360
:103D200032D322FA0CFE10EB0E0023FA0CFE41EB0C
:103D30000E01CCF1200E03FA0EFE10EB0E0051F135
:103D40000001B1F5801FCCF1200E32D201EB0451FD
:103D500012FA0EF2BDE8104058BF7047401C38BF41
:103D60005FEA420218BF7047002814BF20F001002C
:103D700041F100014FEA410313F5001F38BF7047BE
:103D8000A1F1C04100F0B6BA012A43EB0302ACF145
:103D9000200CDCF11F0E32BF4FF0000E23FA0CF3A3
:103DA00010EB030041EB0451B4EB115FD0D0A1EB59
:103DB000045101F5801149085FEA300001EB04511C
:103DC0000ED350F1000038BF12FA0EFE08D1BDE844
:103DD0001040C9E7401C38BF5FEA4202CAD1C3E7BE
:103DE000BDE810404FEA410313F5001F38BF70478C
:103DF000A1F1C04100F07EBA9EEA445F08D011EA0A
:103E00005E0FBDE8104004BF01F000410020704784
:103E1000BDE8104070B500F01FFA00BF64FBBE3E65
:103E20000000E0FF2DE9C04130B4DFF8A0C23CEA59
:103E3000111418BF3CEA131400F0EC8081EA03056A
:103E40001CEA111444EAD57418BF1CEA131500F0DB
:103E5000C780A4EB05044FF0004545EAC12145EABF
:103E6000C32341EA505143EA525304F17F7499420B
:103E700004F500344FEAC0204FEAC22208BF904246
:103E800000F09C804FEA13650FF24016765D4FEA12
:103E9000134506FB05F7C7F1807706FB07F74FEAE6
:103EA000D737A7FB03687642C8F58038A7FB06CE54
:103EB00038BFA8F1010807FB08E64FF0000EA6FB8B
:103EC000028CE6FB03CEDCF1000CCEF1004E38BFD5
:103ED000AEF1010EA6FB0C584FF000074FF00005A5
:103EE000E6FB0E87A1FB08C6A0FB07CE16EB0E066D
:103EF00045F10005E1FB076515F1E04E7EBFA4F535
:103F000080345FEA46066D4116F1800745F10005F1
:103F10004FEA17274FEA066647EA0567A6F1DE462D
:103F2000B6F1805F4FEA15251FD9384624F0010C01
:103F300005EBC471BCF1FE6F01EB0C1102D8F0BCB3
:103F4000BDE8008124425CBF01F5801E9EEAC47F6B
:103F500002D4F0BCBDE80081244238D4F0BCA1F109
:103F6000C041BDE8004100F0C5B94FEAD22242EAA3
:103F700043524FEAD323A7FB02864FEAD02040EA00
:103F8000415007FB03661EEA0E0F4FEAD12105FBE5
:103F9000026658BFA6EB0056B6EB00564FEA520E2B
:103FA0004EEAC37E18EB0E0E56EB530EBDD518EB42
:103FB00002085E417F1C55F10005B6E74FF48015FD
:103FC0004FF000074FF000064FF00008ADE7F0BCDF
:103FD0004FF0000001F1C04101F00041BDE8008157
:103FE00011EA0C1F0CEA131500D00CE013EA0C1FA9
:103FF00000F025804FF00000F0BC81EA030101F0E1
:104000000041BDE80081F0BCBDE8004181EA030148
:1040100000F070B9F0BCBDE8004170B500F01CF9CB
:10402000097EFC3E00F007B881EA03014FF0000072
:1040300001F00041704781EA030100F05BB9F0BC78
:10404000BDE800414FF0000021497047FFFDFBF93A
:10405000F7F5F4F2F0EEEDEBE9E8E6E4E3E1E0DEBB
:10406000DDDBDAD8D7D5D4D3D1D0CFCDCCCBCAC82D
:10407000C7C6C5C4C2C1C0BFBEBDBCBBBAB9B8B754
:10408000B6B5B4B3B2B1B0AFAEADACABAAA9A8A847
:10409000A7A6A5A4A3A3A2A1A09F9F9E9D9C9C9B15
:1040A0009A999998979796959594939392919190C0
:1040B0008F8F8E8E8D8C8C8B8B8A89898888878751
:1040C0008685858484838382828181800000FF07C6
:1040D0000000F87F10F0004248BF4042B0FA80F381
:1040E00010FA03F10AD0C3F11D0303F580634FEA10
:1040F000415002EB035202EBD12170474FF0000018
:1041000070470000DFF848C170B51CEA111E1EBFE1
:104110001CEA13159EEA0C0F95EA0C0F00F06F8055
:1041200081EA030423EA4C134EEAD47E21EA4C11BF
:1041300041F4801143F48013AE44A1FB024CA0FB78
:104140000365AEF17F7E361955EB0C05A1FB034CE0
:104150004CF10003A0FB021C16EB0C06654153F169
:104160000003094218BF46F0010613F4007F0BD18B
:104170004FEA03314FEA0530340341EA155140EA72
:1041800016506FF003020AE04FEAC3214FEAC52040
:10419000F40241EA555140EA56506FF0020202EB38
:1041A0002E4201EB025585EACE710AD05FEA440C3B
:1041B00018BF24F0004450F1000041F1000120EA52
:1041C000D47040F2FE7C624500D270BDA84214BF9C
:1041D0004FF080444FF04044002E08BF0024BEF151
:1041E000806FA8BFA1F1C041BDE8704080F282801D
:1041F0004FF0000001F1C04101F0004170479EEA1C
:104200000C0F0CEA131518BF95EA0C0F06D04FF0EF
:10421000000081EA030E0EF0004170BD00F01CF8B2
:104220008900013E00F007B800F009B84FEA430CDE
:104230005FEA5C5C08D081EA030100F05BB84FEAFA
:10424000410C5FEA5C5CF6D14FF000000149704719
:104250000000FF070000F87F0EF1020E2EF0030EA3
:104260005EF8046B364205D4012A43EB030515F5CD
:10427000001F12D8012841EB010C1CF5001F0CD8BF
:104280000ED14FEAD17C15F5001F0CEB4C0C0CF154
:10429000020C08BF4CEBD37C04E04FF0080C01E0AB
:1042A0004FEAD37C0CEB4C0526FA05F606F0070620
:1042B000B6F1040C06D20EEB860CBDE870404CF053
:1042C000010C6047DFE80CF0090B02024FF00041DF
:1042D0004FF00000A1F5002170BD194610460128DD
:1042E00051EB010418BFD4F5001484BF002001F085
:1042F000004170BD0808A0F500114FEA3101704778
:1043000010B591EA030F48BF83F000433FF5EAACD4
:10431000841A71EB030C07D212198CF0004C43EB9A
:104320000C03001B61EB0C01DFF8A4E14FEA115410
:10433000A4EB135C1EEA430F18BF9EEA445F00F033
:10434000B08023EA6E03524221EA0451C3EB6E03AC
:1043500038BF5B1EDCF1200E25D322FA0CFE10EBD9
:104360000E0043FA0CFE41EB0E01CCF1200E03FAD5
:104370000EFE10EB0E0051F10001CCF1200E29D4FD
:1043800012FA0EF201EB0451BDE8104058BF70471D
:10439000401C1CBFB2F1004F704700280CBF491CE5
:1043A00020F00100704712EB020E43EB030218BF2E
:1043B0004FF0010E4EEA4202ACF1200CDCF11E0E71
:1043C00054D943FA0CFE10EB0E0051F1FF31CCF141
:1043D0001E0ED5D50EF1010E12FA0EFE404141EB34
:1043E000010101EB445C5FEA5C5C10D910EBDE700C
:1043F00001EB045138BFBEF1004FBDE8104018BFBB
:10440000704700280CBF491C20F00100704730D2D3
:104410004FEAD42C11F5001124F400641BD0B1FA3A
:1044200081F20B3AA41AA41ED2F12003914030FA73
:1044300003F31943904001EBCC71002C01EB0451C4
:10444000BDE81040A8BF704701F1C0414FF0000027
:1044500001F000417047B0FA80F310FA03F100D187
:1044600010BDE41A173C4805C90AE4E701EB045102
:1044700010BD491001EB0451BDE810404FEA300077
:1044800002E04FF0000170474A0008BF0042F8D038
:10449000B2F5001F28BF704701F000414FF0000047
:1044A00070479EEA445F07D011EA5E0FBDE81040F6
:1044B00004BF002100207047BDE8104070B5FFF731
:1044C000CBFE00BF40DFF63E83F000411046704750
:1044D0000000E0FF43004FEAD30C4FEA3C0C43409E
:1044E0001FBF40070CF1605113F0FE4F70471CF0E6
:1044F000006F03D100200CF0004170470CF0004326
:1045000043EA507010B540EACC0000F0EEF900BF6D
:10451000000000924FEA0001FFF7ECBE4FF00041AF
:104520004FF00000A1F500217047000090EA010F54
:1045300048BF81F0004100F12A82421A3CBF801A34
:1045400089184FEAD0524FF07F4C1CEA410FA2EB82
:10455000D15318BF9CEA026F00F03B804FF0004C33
:104560004CEA00204CEA012121FA03FC10EB0C0C70
:104570001ED202F1FF325FEA1C2040EBC25038BF6E
:1045800070471CF07F0F4FEA400C18BFBCF17F4F03
:1045900038BF7047C3F12003994008BF20F00100E5
:1045A000BCF17F4F38BF7047A0F1C04000F0E3B9C5
:1045B0004FEA3C00000A40EBC25028BF1CF0FF0F3E
:1045C0004FEA400CE6D018BFBCF17F4F38BF7047B0
:1045D000EAE79CEA026F05D010EA5C0F08BF00F022
:1045E0000040704710B500F080F900BF64FBBE3E8C
:1045F000014800F03CBA00BF0000C07F4FF47F0CC0
:104600001CEAD0121EBF1CEAD11392EA0C0F93EAE7
:104610000C0F00F0858090EA010F48BF42F48072D1
:1046200040F4000C41F400002CF07F4120F07F406A
:1046300000B58142A2EB03020FF2081CACEB504E16
:10464000C0F100009EF800E04FEA4E0E00FB0EFCA9
:1046500038BF49004FEA2C1C02F5FA020CFB0EF39E
:104660004FEACE1E4FEA112C4FEAC1210EEB635EDA
:1046700042EB22420EFB0CFC4FEA1C5300FB0311E1
:104680004FEA112C4FEA01310EFB0CFC4FEADC4CD7
:1046900000FB0C11C14228BF09184CEB03335DF835
:1046A00004EB10EB410143EBC250B2F57C0F38BF75
:1046B000704729D512F0F00F1CBF00F1C04000F088
:1046C00000407047008182838485868788898B8C2F
:1046D0008D8E8F919293959697999A9C9D9FA0A26B
:1046E000A3A5A7A8AAACAEB0B2B3B5B7B9BCBEC0BB
:1046F000C2C5C7C9CCCED1D4D7D9DCDFE2E6E9EC5C
:10470000F0F3F7FAFE0000004FEA400C0CF1807C59
:10471000BCF17E4F28BF7047B0F1C04000F02BB90C
:1047200090EA010F0CEAD11348BF42F4807262454F
:1047300038BF634507D213F47F0F16D080EA01001B
:1047400000F00040704710B500F0CFF8097EFC3E45
:1047500000F005B880EA010000F00040704780EAF0
:10476000010000F0004000F006B912F47F0F04BF12
:104770000248704780EA010000F0FDB80000C07FE9
:1047800041000B0ED3F19E0208D950F400034FEA0A
:10479000032323FA02F048BF4042704710B500F0EF
:1047A000A4F800BF49922480002070476FF00042B7
:1047B00082EA20007047000010F0004148BF4042EC
:1047C000B0FA80F310FA03F2C3F19D030BD051EA63
:1047D000C35101EB1220530638BF704700F10100AE
:1047E00008BF20F0010070474FF47F0C1CEAD01284
:1047F0001EBF1CEAD11392EA0C0F93EA0C0F00F0D3
:10480000478090EA010F48BF42F480724FF0004C9D
:104810004CEA00204CEA012102EB0302A0FB011349
:10482000A2F50002002918BF43F001035B0028BF76
:104830004FEA330342EB22425FEA132C4CEBC250A7
:104840002EBFBCEB436FB2F57C0F70474FEA036C91
:10485000BCF1004F08BF20F00100B2F57C0F38BF5B
:1048600070470BD582F0FF0212F5803FC8BF70473A
:1048700000F1C040D8BF00F00040704700F5000CC8
:104880005FEA4C0C48BF7047B0F1C04000F073B80D
:1048900090EA010F0CEAD11348BF42F480726245DE
:1048A00038BF634504D280EA010000F00040704741
:1048B00010B500F01AF800BF8900013E00F007B8FB
:1048C00000F009B85FEA410C5FEA1C6C08D080EA8E
:1048D000010000F050B85FEA400C5FEA1C6CF6D1B2
:1048E0004FF00040A0F5800070470EF1020E2EF050
:1048F000030E5EF8044B244204D44FEA4102B2F1A5
:104900007F4F11D84FEA4003B3F17F4F0CD80ED13F
:104910004FEAD07CB2F17F4F0CEB4C0C0CF1020C47
:1049200008BF4CEBD17C04E04FF0080C01E04FEAEB
:10493000D17C0CEB4C0324FA03F404F00704B4F12B
:10494000040C06D20EEB840CBDE810404CF0010CB8
:104950006047DFE80CF0070802024FF00040A0F5C6
:10496000800010BD0846420018BFD2F1807288BF97
:1049700000F0004010BDFF2141EAD050C005704753
:1049800090EA010F48BF81F000413FF5D6AD421AD1
:1049900004D882F00042A0EB020011444FEAD0524A
:1049A0004FF07F4C1CEA410FA2EBD15318BF9CEA99
:1049B000026F4AD04FF0004C4CEA00204CEA012133
:1049C00021FA03FCB0EB0C0C0FD412F0FE0F36D022
:1049D0005FEA4C001DD5001240EBC25038BF704753
:1049E0001CF03F0F18BF70470BE0A2F101025FEA15
:1049F0001C2040EBC25038BF70471CF07F0F18BF1F
:104A00007047C3F12003994014BF401E20F00100FD
:104A1000704780084FEA122308BF7047B0FA80FC45
:104A2000A2EB0C02CCF1280C60FA0CF093EA122FE6
:104A300004BF00EBC25070474FEAC3707047130ABF
:104A40005FEADC1008BF7047F6E79CEA026F04D00B
:104A500010EA5C0F08BF0020704710B5FFF745FF54
:104A600040DFF63E81F000407047FBF73EBD0CF0A2
:104A70000F03092B08BF082000F051800A2B0BD030
:104A8000082B18BF704708BF1CF0400F0AD04FF02A
:104A900000004FF0000170471CF0400F18BF4FF0AE
:104AA000004070471CF0100F08D020F0704300F059
:104AB0007F4242EAD3014FEA4370704700F0604002
:104AC00021F07F4242EA000201F07F4040EA72702A
:104AD00070474FF0FF0212EAD0521CBF92F0FF0362
:104AE0008B42C2BFD14200EBC1507047002A0AD0AE
:104AF000002B0BD0002900F00040A4BF40F0FE4086
:104B000040F40000704700F00040704743024FF04F
:104B10000B0C18BF4CF0806C7FF46AAD70471CF42E
:104B2000801F11D01CF4E02F03D06FEACC31490074
:104B300070474FF04050EFF3008222F0704242EA9B
:104B4000000282F3008870474FF0000070470102B6
:104B500002030405060708090A0B0C0D0E0F1010BE
:104B6000000000000000000001020304060708091D
:104B7000000000000102030402400000000000A049
:104B80000000000005400000000000C80000000018
:104B90000C4000000000409C000000001940000094
:104BA0000020BCBE0000000034400000BFC91B8EC6
:104BB00000000004B5400000504BCFD06607E2CFA4
:104BC000010000006C4100003E8251AADFEEA734D4
:104BD00001000000D9420000DCB5A0E23A301F9786
:104BE000FFFFFFFFB4450000FD25A0C8E9A3C14FAA
:104BF000FFFFFFFFFF3F00000000008000000000FB
:104C0000FF3F000000000080000000003A747400C4
:104C10003A7474003A747400644D00080000002077
:104C2000600000006C010008C44D00086000002016
:104C300090080000880100081C00000043000000EC
:104C4000F8FFFFFF0C0000000E0000000F00000046
:104C50002E0000001001000043000000F8FFFFFFDD
:104C6000004040404040404040404141414141407F
:104C70004040404040404040404040404040404034
:104C800040050202020202020202020202020202C3
:104C900002202020202020202020200202020202C8
:104CA0000202909090909090101010101010101020
:104CB000101010101010101010101010020202022C
:104CC0000202888888888888080808080808080870
:104CD000080808080808080808080808020202026C
:104CE0004000000000000000000000000000000084
:104CF00000000000000000000000000000000000B4
:104D000000000000000000000000000000000000A3
:104D10000000000000000000000000000000000093
:104D20000000000000000000000000000000000083
:104D30000000000000000000000000000000000073
:104D40000000000000000000000000000000000063
:104D50000000000000000000000000000000000053
:104D60000000000000000000000000000000000043
:104D70000000000000000000000000000000000033
:104D80000000000000000000000000000000000023
:104D90000000000000000000000000000000000013
:104DA00000000000000000000100000010000000F2
:104DB000000000000024F4000000000000000000DB
:044DC00000000000EF
:0400000508000131BD
:00000001FF
